{
  "contractName": "base",
  "abi": [
    {
      "constant": true,
      "inputs": [
        {
          "internalType": "uint256",
          "name": "a",
          "type": "uint256"
        },
        {
          "internalType": "uint256",
          "name": "b",
          "type": "uint256"
        }
      ],
      "name": "_add",
      "outputs": [
        {
          "internalType": "uint256",
          "name": "sum",
          "type": "uint256"
        }
      ],
      "payable": false,
      "stateMutability": "pure",
      "type": "function"
    },
    {
      "constant": true,
      "inputs": [
        {
          "internalType": "uint256",
          "name": "a",
          "type": "uint256"
        },
        {
          "internalType": "uint256",
          "name": "b",
          "type": "uint256"
        }
      ],
      "name": "_sub",
      "outputs": [
        {
          "internalType": "uint256",
          "name": "result",
          "type": "uint256"
        }
      ],
      "payable": false,
      "stateMutability": "pure",
      "type": "function"
    }
  ],
  "bytecode": "0x61012c610026600b82828239805160001a60731461001957fe5b30600052607381538281f3fe7300000000000000000000000000000000000000003014608060405260043610603d5760003560e01c80633d0316c31460425780636e1e145d14608b575b600080fd5b607560048036036040811015605657600080fd5b81019080803590602001909291908035906020019092919050505060d4565b6040518082815260200191505060405180910390f35b60be60048036036040811015609f57600080fd5b81019080803590602001909291908035906020019092919050505060e1565b6040518082815260200191505060405180910390f35b6000818301905092915050565b60008183101560ec57fe5b81830390509291505056fea265627a7a723158203eca07d867481ab4eb81f5417bb6f1c41e5c4f3f2b9b038691d309fb5e8a85d364736f6c63430005100032",
  "source": "pragma solidity >=0.4.22 <0.9.0;\n\nlibrary base{\n\n    function _add( uint256 a, uint256 b) external pure  returns(uint256 sum){\n        assembly{\n            sum :=add(a,b)\n        }\n    }\n    function _sub( uint256 a, uint256 b) external pure  returns(uint256 result){\n        assert(a>=b);\n        assembly{\n            result :=sub(a,b)\n        }\n    }\n\n}",
  "sourcePath": "/home/mandombe/Script/development/smart-contract/MCoin/contracts/Math.sol",
  "compiler": {
    "name": "solc",
    "version": "0.5.16+commit.9c3226ce.Emscripten.clang"
  },
  "schemaVersion": "3.3.4",
  "updatedAt": "2021-05-13T20:26:15.187Z",
  "devdoc": {
    "methods": {}
  },
  "userdoc": {
    "methods": {}
  }
}