{
  "contractName": "MCoin",
  "abi": [
    {
      "inputs": [
        {
          "internalType": "bytes8",
          "name": "_name",
          "type": "bytes8"
        },
        {
          "internalType": "uint8",
          "name": "_decimal",
          "type": "uint8"
        },
        {
          "internalType": "bytes4",
          "name": "_symbol",
          "type": "bytes4"
        },
        {
          "internalType": "uint8",
          "name": "_donateBalance",
          "type": "uint8"
        }
      ],
      "payable": false,
      "stateMutability": "nonpayable",
      "type": "constructor"
    },
    {
      "anonymous": false,
      "inputs": [
        {
          "indexed": true,
          "internalType": "address",
          "name": "owner",
          "type": "address"
        },
        {
          "indexed": true,
          "internalType": "address",
          "name": "spender",
          "type": "address"
        },
        {
          "indexed": false,
          "internalType": "uint256",
          "name": "value",
          "type": "uint256"
        }
      ],
      "name": "Approval",
      "type": "event"
    },
    {
      "anonymous": false,
      "inputs": [
        {
          "indexed": true,
          "internalType": "address",
          "name": "from",
          "type": "address"
        },
        {
          "indexed": true,
          "internalType": "address",
          "name": "to",
          "type": "address"
        },
        {
          "indexed": false,
          "internalType": "uint256",
          "name": "value",
          "type": "uint256"
        }
      ],
      "name": "Transfer",
      "type": "event"
    },
    {
      "constant": false,
      "inputs": [
        {
          "internalType": "uint32",
          "name": "_id",
          "type": "uint32"
        },
        {
          "internalType": "string",
          "name": "_name",
          "type": "string"
        }
      ],
      "name": "donateCoin",
      "outputs": [
        {
          "internalType": "bool",
          "name": "",
          "type": "bool"
        }
      ],
      "payable": false,
      "stateMutability": "nonpayable",
      "type": "function"
    },
    {
      "constant": true,
      "inputs": [],
      "name": "name",
      "outputs": [
        {
          "internalType": "bytes8",
          "name": "",
          "type": "bytes8"
        }
      ],
      "payable": false,
      "stateMutability": "view",
      "type": "function"
    },
    {
      "constant": true,
      "inputs": [],
      "name": "symbol",
      "outputs": [
        {
          "internalType": "bytes4",
          "name": "",
          "type": "bytes4"
        }
      ],
      "payable": false,
      "stateMutability": "view",
      "type": "function"
    },
    {
      "constant": true,
      "inputs": [],
      "name": "decimals",
      "outputs": [
        {
          "internalType": "uint8",
          "name": "",
          "type": "uint8"
        }
      ],
      "payable": false,
      "stateMutability": "view",
      "type": "function"
    },
    {
      "constant": true,
      "inputs": [],
      "name": "totalSupply",
      "outputs": [
        {
          "internalType": "uint256",
          "name": "",
          "type": "uint256"
        }
      ],
      "payable": false,
      "stateMutability": "view",
      "type": "function"
    },
    {
      "constant": true,
      "inputs": [
        {
          "internalType": "address",
          "name": "account",
          "type": "address"
        }
      ],
      "name": "balanceOf",
      "outputs": [
        {
          "internalType": "uint256",
          "name": "",
          "type": "uint256"
        }
      ],
      "payable": false,
      "stateMutability": "view",
      "type": "function"
    },
    {
      "constant": true,
      "inputs": [
        {
          "internalType": "address",
          "name": "owner",
          "type": "address"
        },
        {
          "internalType": "address",
          "name": "spender",
          "type": "address"
        }
      ],
      "name": "allowance",
      "outputs": [
        {
          "internalType": "uint256",
          "name": "",
          "type": "uint256"
        }
      ],
      "payable": false,
      "stateMutability": "view",
      "type": "function"
    },
    {
      "constant": false,
      "inputs": [
        {
          "internalType": "address",
          "name": "spender",
          "type": "address"
        },
        {
          "internalType": "uint256",
          "name": "amount",
          "type": "uint256"
        }
      ],
      "name": "approve",
      "outputs": [
        {
          "internalType": "bool",
          "name": "",
          "type": "bool"
        }
      ],
      "payable": false,
      "stateMutability": "nonpayable",
      "type": "function"
    },
    {
      "constant": false,
      "inputs": [
        {
          "internalType": "address",
          "name": "sender",
          "type": "address"
        },
        {
          "internalType": "address",
          "name": "recipient",
          "type": "address"
        },
        {
          "internalType": "uint256",
          "name": "amount",
          "type": "uint256"
        }
      ],
      "name": "transferFrom",
      "outputs": [
        {
          "internalType": "bool",
          "name": "",
          "type": "bool"
        }
      ],
      "payable": false,
      "stateMutability": "nonpayable",
      "type": "function"
    }
  ],
  "bytecode": "0x608060405234801561001057600080fd5b5060405161111d38038061111d8339818101604052608081101561003357600080fd5b810190808051906020019092919080519060200190929190805190602001909291908051906020019092919050505083600160006101000a81548167ffffffffffffffff021916908360c01c021790555082600160086101000a81548160ff021916908360ff16021790555081600160096101000a81548163ffffffff021916908360e01c02179055504260028190555080600360006101000a81548160ff021916908360ff1602179055505050505061102b806100f26000396000f3fe608060405234801561001057600080fd5b50600436106100935760003560e01c806323b872dd1161006657806323b872dd14610253578063313ce567146102d957806370a08231146102fd57806395d89b4114610355578063dd62ed3e146103b157610093565b806306fdde0314610098578063095ea7b3146100ec57806315b3e2041461015257806318160ddd14610235575b600080fd5b6100a0610429565b604051808277ffffffffffffffffffffffffffffffffffffffffffffffff191677ffffffffffffffffffffffffffffffffffffffffffffffff1916815260200191505060405180910390f35b6101386004803603604081101561010257600080fd5b81019080803573ffffffffffffffffffffffffffffffffffffffff16906020019092919080359060200190929190505050610440565b604051808215151515815260200191505060405180910390f35b61021b6004803603604081101561016857600080fd5b81019080803563ffffffff1690602001909291908035906020019064010000000081111561019557600080fd5b8201836020820111156101a757600080fd5b803590602001918460018302840111640100000000831117156101c957600080fd5b91908080601f016020809104026020016040519081016040528093929190818152602001838380828437600081840152601f19601f82011690508083019250505050505050919291929050505061063d565b604051808215151515815260200191505060405180910390f35b61023d6108f8565b6040518082815260200191505060405180910390f35b6102bf6004803603606081101561026957600080fd5b81019080803573ffffffffffffffffffffffffffffffffffffffff169060200190929190803573ffffffffffffffffffffffffffffffffffffffff16906020019092919080359060200190929190505050610901565b604051808215151515815260200191505060405180910390f35b6102e1610c2e565b604051808260ff1660ff16815260200191505060405180910390f35b61033f6004803603602081101561031357600080fd5b81019080803573ffffffffffffffffffffffffffffffffffffffff169060200190929190505050610c45565b6040518082815260200191505060405180910390f35b61035d610d36565b60405180827bffffffffffffffffffffffffffffffffffffffffffffffffffffffff19167bffffffffffffffffffffffffffffffffffffffffffffffffffffffff1916815260200191505060405180910390f35b610413600480360360408110156103c757600080fd5b81019080803573ffffffffffffffffffffffffffffffffffffffff169060200190929190803573ffffffffffffffffffffffffffffffffffffffff169060200190929190505050610d4d565b6040518082815260200191505060405180910390f35b6000600160009054906101000a900460c01b905090565b60008073ffffffffffffffffffffffffffffffffffffffff163373ffffffffffffffffffffffffffffffffffffffff1614156104e4576040517f08c379a00000000000000000000000000000000000000000000000000000000081526004018080602001828103825260128152602001807f456e64657265636f20496e76616c69646f21000000000000000000000000000081525060200191505060405180910390fd5b6000600460003373ffffffffffffffffffffffffffffffffffffffff1673ffffffffffffffffffffffffffffffffffffffff16815260200190815260200160002060000160009054906101000a900463ffffffff1663ffffffff16146105b2576040517f08c379a000000000000000000000000000000000000000000000000000000000815260040180806020018281038252600f8152602001807f436f6e746120496e76616c69646f21000000000000000000000000000000000081525060200191505060405180910390fd5b81600560003373ffffffffffffffffffffffffffffffffffffffff1673ffffffffffffffffffffffffffffffffffffffff16815260200190815260200160002060008573ffffffffffffffffffffffffffffffffffffffff1673ffffffffffffffffffffffffffffffffffffffff168152602001908152602001600020819055506001905092915050565b60008073ffffffffffffffffffffffffffffffffffffffff163373ffffffffffffffffffffffffffffffffffffffff1614156106e1576040517f08c379a00000000000000000000000000000000000000000000000000000000081526004018080602001828103825260128152602001807f456e64657265636f20496e76616c69646f21000000000000000000000000000081525060200191505060405180910390fd5b6000600460003373ffffffffffffffffffffffffffffffffffffffff1673ffffffffffffffffffffffffffffffffffffffff16815260200190815260200160002060000160009054906101000a900463ffffffff1663ffffffff16146107af576040517f08c379a00000000000000000000000000000000000000000000000000000000081526004018080602001828103825260138152602001807f436f6e7461204a61204578697374656e7465210000000000000000000000000081525060200191505060405180910390fd5b611c206002540142111561082b576040517f08c379a000000000000000000000000000000000000000000000000000000000815260040180806020018281038252600f8152602001807f54656d706f204573676f7461646f21000000000000000000000000000000000081525060200191505060405180910390fd5b60405180606001604052808463ffffffff168152602001838152602001600360009054906101000a900460ff1660ff16815250600460003373ffffffffffffffffffffffffffffffffffffffff1673ffffffffffffffffffffffffffffffffffffffff16815260200190815260200160002060008201518160000160006101000a81548163ffffffff021916908363ffffffff16021790555060208201518160010190805190602001906108e0929190610f1e565b50604082015181600201559050506001905092915050565b60008054905090565b600080600460003373ffffffffffffffffffffffffffffffffffffffff1673ffffffffffffffffffffffffffffffffffffffff16815260200190815260200160002060000160009054906101000a900463ffffffff1663ffffffff16146109d0576040517f08c379a00000000000000000000000000000000000000000000000000000000081526004018080602001828103825260128152602001807f456e64657265636f20496e76616c69646f21000000000000000000000000000081525060200191505060405180910390fd5b6000600560008673ffffffffffffffffffffffffffffffffffffffff1673ffffffffffffffffffffffffffffffffffffffff16815260200190815260200160002060003373ffffffffffffffffffffffffffffffffffffffff1673ffffffffffffffffffffffffffffffffffffffff16815260200190815260200160002054905082600460008773ffffffffffffffffffffffffffffffffffffffff1673ffffffffffffffffffffffffffffffffffffffff1681526020019081526020016000206002015410158015610aa35750828110155b610af8576040517f08c379a0000000000000000000000000000000000000000000000000000000008152600401808060200182810382526033815260200180610fc46033913960400191505060405180910390fd5b82600460008773ffffffffffffffffffffffffffffffffffffffff1673ffffffffffffffffffffffffffffffffffffffff1681526020019081526020016000206002016000828254039250508190555082600460008673ffffffffffffffffffffffffffffffffffffffff1673ffffffffffffffffffffffffffffffffffffffff1681526020019081526020016000206002016000828254019250508190555082600560008773ffffffffffffffffffffffffffffffffffffffff1673ffffffffffffffffffffffffffffffffffffffff16815260200190815260200160002060003373ffffffffffffffffffffffffffffffffffffffff1673ffffffffffffffffffffffffffffffffffffffff1681526020019081526020016000206000828254039250508190555060019150509392505050565b6000600160089054906101000a900460ff16905090565b600081600073ffffffffffffffffffffffffffffffffffffffff168173ffffffffffffffffffffffffffffffffffffffff161415610ceb576040517f08c379a00000000000000000000000000000000000000000000000000000000081526004018080602001828103825260128152602001807f456e64657265636f20496e76616c69646f21000000000000000000000000000081525060200191505060405180910390fd5b600460008473ffffffffffffffffffffffffffffffffffffffff1673ffffffffffffffffffffffffffffffffffffffff16815260200190815260200160002060020154915050919050565b6000600160099054906101000a900460e01b905090565b600082600073ffffffffffffffffffffffffffffffffffffffff168173ffffffffffffffffffffffffffffffffffffffff161415610df3576040517f08c379a00000000000000000000000000000000000000000000000000000000081526004018080602001828103825260128152602001807f456e64657265636f20496e76616c69646f21000000000000000000000000000081525060200191505060405180910390fd5b82600073ffffffffffffffffffffffffffffffffffffffff168173ffffffffffffffffffffffffffffffffffffffff161415610e97576040517f08c379a00000000000000000000000000000000000000000000000000000000081526004018080602001828103825260128152602001807f456e64657265636f20496e76616c69646f21000000000000000000000000000081525060200191505060405180910390fd5b600560008673ffffffffffffffffffffffffffffffffffffffff1673ffffffffffffffffffffffffffffffffffffffff16815260200190815260200160002060008573ffffffffffffffffffffffffffffffffffffffff1673ffffffffffffffffffffffffffffffffffffffff168152602001908152602001600020549250505092915050565b828054600181600116156101000203166002900490600052602060002090601f016020900481019282601f10610f5f57805160ff1916838001178555610f8d565b82800160010185558215610f8d579182015b82811115610f8c578251825591602001919060010190610f71565b5b509050610f9a9190610f9e565b5090565b610fc091905b80821115610fbc576000816000905550600101610fa4565b5090565b9056fe496d706f73736976656c2065666563747561722061207472616e736163616f2c2076616c6f7220696e737566696369656e7465a265627a7a7231582086c47556dd5061c26615a7f95cc60c3f1f13fd9372df98f18fa689f88958412c64736f6c63430005100032",
  "source": "pragma solidity >=0.4.22 <0.9.0;\n\nimport \"./IERC20.sol\";\nimport {base} from \"./Math.sol\";\n\ncontract MCoin is IERC20{\n\n    using base for uint256;\n\n    uint256 private coinTotalSupply;\n    bytes8 private coinName;                   \n    uint8 private coinDecimals;                \n    bytes4 private coinSymbol;\n    uint private limitTime;\n    uint8 private donateBalance;\n\n    struct Account{\n        uint32 id;\n        string name;\n        uint256 balance;\n    }\n\n    mapping(address=>Account) private proprietarios;\n    mapping(address=>mapping(address=>uint256)) private allowed; \n\n    modifier someOneReal(address someone){\n        require(someone!=address(0), \"Endereco Invalido!\");\n        _;\n    }\n    modifier onlyReal(){\n        require(msg.sender!=address(0), \"Endereco Invalido!\");\n        _;\n    }\n    modifier onlyExchange(){\n        require(proprietarios[msg.sender].id==0, \"Endereco Invalido!\");\n        _;\n    }\n    modifier onlyRealAccount(){\n        require(msg.sender!=address(0), \"Endereco Invalido!\");\n        require(proprietarios[msg.sender].id==0, \"Conta Invalido!\");\n        _;\n    }\n\n    constructor(bytes8 _name, uint8 _decimal, bytes4 _symbol, uint8 _donateBalance) public{\n        coinName = _name;\n        coinDecimals = _decimal;\n        coinSymbol = _symbol;\n        limitTime = block.timestamp;\n        donateBalance = _donateBalance;\n    }\n\n    function donateCoin(uint32 _id, string memory _name) public onlyReal returns(bool){\n        require(proprietarios[msg.sender].id==0, \"Conta Ja Existente!\");\n        require(block.timestamp <= limitTime + 2 hours, \"Tempo Esgotado!\");\n        proprietarios[msg.sender]=Account({id:_id, name:_name, balance:donateBalance});\n        return true;\n    }\n\n\n    function name()  public  view returns (bytes8){\n        return coinName;\n    }\n    function symbol() public  view returns (bytes4){\n        return coinSymbol;\n    }\n    function decimals() public  view returns (uint8){\n        return coinDecimals;\n    }\n\n    function totalSupply() public view  returns (uint256){\n        return coinTotalSupply;\n    }\n    function balanceOf(address account) public  view someOneReal(account) returns (uint256){\n        return proprietarios[account].balance;\n    }\n//    function transfer(address recipient, uint256 amount) public onlyExchange returns (bool){}\n    function allowance(address owner, address spender) public  view someOneReal(owner) someOneReal(spender) returns (uint256){\n        return allowed[owner][spender];\n    }\n    function approve(address spender, uint256 amount) public  onlyRealAccount returns (bool){\n        allowed[msg.sender][spender] = amount;\n        return true;\n    }\n    function transferFrom(address sender, address recipient, uint256 amount) public  onlyExchange returns (bool){\n        uint256 allowedValue = allowed[sender][msg.sender];\n        require(proprietarios[sender].balance >= amount && allowedValue>=amount, \"Impossivel efectuar a transacao, valor insuficiente\");\n        proprietarios[sender].balance -= amount;\n        proprietarios[recipient].balance += amount;\n        allowed[sender][msg.sender] -= amount;\n\n        return true;\n    }\n}",
  "sourcePath": "/home/mandombe/Script/development/smart-contract/MCoin/contracts/MCoin.sol",
  "compiler": {
    "name": "solc",
    "version": "0.5.16+commit.9c3226ce.Emscripten.clang"
  },
  "schemaVersion": "3.3.4",
  "updatedAt": "2021-05-13T20:26:15.184Z",
  "devdoc": {
    "methods": {}
  },
  "userdoc": {
    "methods": {}
  }
}